:100000008031862800006236E130E1308A06000047
:100010000B088B1323009517151400000000891B93
:100020008B1713087F39031956282000A2002300DC
:1000300011082000A300230012082000A4002208B9
:10004000111E202823009A0020002308230091007D
:1000500020002408230092000B088B139517151419
:1000600000000000891B8B17130D140D7F39031935
:1000700056282000A200230011082000A30023001E
:1000800012082000A4002208111E442823009A0010
:100090002000230823009100200024082300920060
:1000A000910A0319920A20000828230080312000B9
:1000B000A8280830A200A20803196C28210880395A
:1000C000031D64288E1165288E150310A10D0E12D4
:1000D0000E160E12A2035B2808008E168E128E16C4
:1000E00008002030850002308400000803198528AC
:1000F0000A30F800F701F70B7B28F80B7A285F30FD
:10010000F700F70B8128800B78280800F0302100D9
:10011000990022001D159D172000A00123009F15A6
:1001200040309B0003309C00A6309E0090309D0024
:100130008C018E0122009201910194019301210012
:100140008E01033023009100003092002000082827
:100150006330A10059206D200230A100FA30A200C6
:100160007120A10BAE286530A10059206D2002300E
:10017000A100FA30A2007120A10BB9286930A100BA
:1001800059206D200230A100FA30A2007120A10B8D
:10019000C4287130A10059206D200230A100FA302E
:0C01A000A2007120A10BCF28A82863004A
:020000040001F9
:04000E00C439FF1ED4
:00000001FF
;PIC16F1825
;CRC=5C69  CREATED="24-Jan-15 18:26"
